{"contracts/CampaignManager.sol":{"CampaignManager":{"abi":[{"anonymous":false,"inputs":[{"indexed":true,"internalType":"address","name":"_from","type":"address"},{"indexed":true,"internalType":"uint256","name":"_id","type":"uint256"},{"indexed":false,"internalType":"uint256","name":"_value","type":"uint256"}],"name":"CampaignCreated","type":"event"},{"anonymous":false,"inputs":[{"indexed":true,"internalType":"address","name":"previousOwner","type":"address"},{"indexed":true,"internalType":"address","name":"newOwner","type":"address"}],"name":"OwnershipTransferred","type":"event"},{"inputs":[{"internalType":"string","name":"_campaignName","type":"string"},{"internalType":"uint256","name":"_goalAmount","type":"uint256"},{"internalType":"uint256","name":"_duration","type":"uint256"}],"name":"createCampaign","outputs":[{"internalType":"string","name":"","type":"string"}],"stateMutability":"nonpayable","type":"function"},{"inputs":[{"internalType":"uint256","name":"_id","type":"uint256"}],"name":"getCampaignAddress","outputs":[{"internalType":"address","name":"","type":"address"}],"stateMutability":"view","type":"function"},{"inputs":[],"name":"owner","outputs":[{"internalType":"address","name":"","type":"address"}],"stateMutability":"view","type":"function"},{"inputs":[],"name":"renounceOwnership","outputs":[],"stateMutability":"nonpayable","type":"function"},{"inputs":[{"internalType":"address","name":"newOwner","type":"address"}],"name":"transferOwnership","outputs":[],"stateMutability":"nonpayable","type":"function"}],"evm":{"bytecode":{"linkReferences":{},"object":"6080604052600060025534801561001557600080fd5b5061001f33610024565b610074565b600080546001600160a01b038381166001600160a01b0319831681178455604051919092169283917f8be0079c531659141344cd1fd0a4f28419497f9722a3daafe3b4186f6b6457e09190a35050565b6112f8806100836000396000f3fe60806040523480156200001157600080fd5b50600436106200005e5760003560e01c80633020580b1462000063578063715018a614620000925780638da5cb5b146200009e578063e1231ec514620000c4578063f2fde38b14620000f0575b600080fd5b6200007a6200007436600462000601565b62000107565b6040516200008991906200072e565b60405180910390f35b6200009c62000218565b005b6000546001600160a01b03165b6040516001600160a01b03909116815260200162000089565b620000ab620000d5366004620006c7565b6000908152600160205260409020546001600160a01b031690565b6200009c62000101366004620005d8565b62000230565b606060008484846040516200011c90620005ca565b6200012a939291906200076f565b604051809103906000f08015801562000147573d6000803e3d6000fd5b5060028054600090815260016020526040812080546001600160a01b0319166001600160a01b03851617905581549293506200018383620007ed565b9190505550620001c160405180604001604052806015815260200174021b0b6b830b4b3b71031b932b0ba32b21030ba1d1605d1b81525082620002b3565b60025460405185815233907f681f945f90ca3793b37315ed6a012353c82c1b37ca023ef835c746461359f5529060200160405180910390a36200020f816001600160a01b0316601462000300565b95945050505050565b62000222620004fd565b6200022e600062000559565b565b6200023a620004fd565b6001600160a01b038116620002a55760405162461bcd60e51b815260206004820152602660248201527f4f776e61626c653a206e6577206f776e657220697320746865207a65726f206160448201526564647265737360d01b60648201526084015b60405180910390fd5b620002b08162000559565b50565b620002fc8282604051602401620002cc92919062000743565b60408051601f198184030181529190526020810180516001600160e01b031663319af33360e01b179052620005a9565b5050565b6060600062000311836002620007b1565b6200031e90600262000796565b67ffffffffffffffff8111156200034557634e487b7160e01b600052604160045260246000fd5b6040519080825280601f01601f19166020018201604052801562000370576020820181803683370190505b509050600360fc1b816000815181106200039a57634e487b7160e01b600052603260045260246000fd5b60200101906001600160f81b031916908160001a905350600f60fb1b81600181518110620003d857634e487b7160e01b600052603260045260246000fd5b60200101906001600160f81b031916908160001a9053506000620003fe846002620007b1565b6200040b90600162000796565b90505b6001811115620004a5576f181899199a1a9b1b9c1cb0b131b232b360811b85600f16601081106200044f57634e487b7160e01b600052603260045260246000fd5b1a60f81b8282815181106200047457634e487b7160e01b600052603260045260246000fd5b60200101906001600160f81b031916908160001a90535060049490941c936200049d81620007d3565b90506200040e565b508315620004f65760405162461bcd60e51b815260206004820181905260248201527f537472696e67733a20686578206c656e67746820696e73756666696369656e7460448201526064016200029c565b9392505050565b6000546001600160a01b031633146200022e5760405162461bcd60e51b815260206004820181905260248201527f4f776e61626c653a2063616c6c6572206973206e6f7420746865206f776e657260448201526064016200029c565b600080546001600160a01b038381166001600160a01b0319831681178455604051919092169283917f8be0079c531659141344cd1fd0a4f28419497f9722a3daafe3b4186f6b6457e09190a35050565b80516a636f6e736f6c652e6c6f67602083016000808483855afa5050505050565b610a8b806200083883390190565b600060208284031215620005ea578081fd5b81356001600160a01b0381168114620004f6578182fd5b60008060006060848603121562000616578182fd5b833567ffffffffffffffff808211156200062e578384fd5b818601915086601f83011262000642578384fd5b81358181111562000657576200065762000821565b604051601f8201601f19908116603f0116810190838211818310171562000682576200068262000821565b816040528281528960208487010111156200069b578687fd5b826020860160208301379182016020908101969096525097938601359650505060409093013592509050565b600060208284031215620006d9578081fd5b5035919050565b60008151808452815b818110156200070757602081850181015186830182015201620006e9565b81811115620007195782602083870101525b50601f01601f19169290920160200192915050565b602081526000620004f66020830184620006e0565b604081526000620007586040830185620006e0565b905060018060a01b03831660208301529392505050565b606081526000620007846060830186620006e0565b60208301949094525060400152919050565b60008219821115620007ac57620007ac6200080b565b500190565b6000816000190483118215151615620007ce57620007ce6200080b565b500290565b600081620007e557620007e56200080b565b506000190190565b60006000198214156200080457620008046200080b565b5060010190565b634e487b7160e01b600052601160045260246000fd5b634e487b7160e01b600052604160045260246000fdfe6080604052600060035560006006553480156200001b57600080fd5b5060405162000a8b38038062000a8b8339810160408190526200003e9162000180565b62000049336200008a565b82516200005e906001906020860190620000da565b5060028290556200007181603c62000285565b6200007d90426200026a565b6004555062000310915050565b600080546001600160a01b038381166001600160a01b0319831681178455604051919092169283917f8be0079c531659141344cd1fd0a4f28419497f9722a3daafe3b4186f6b6457e09190a35050565b828054620000e890620002a7565b90600052602060002090601f0160209004810192826200010c576000855562000157565b82601f106200012757805160ff191683800117855562000157565b8280016001018555821562000157579182015b82811115620001575782518255916020019190600101906200013a565b506200016592915062000169565b5090565b5b808211156200016557600081556001016200016a565b60008060006060848603121562000195578283fd5b83516001600160401b0380821115620001ac578485fd5b818601915086601f830112620001c0578485fd5b815181811115620001d557620001d5620002fa565b604051601f8201601f19908116603f01168101908382118183101715620002005762000200620002fa565b816040528281526020935089848487010111156200021c578788fd5b8791505b828210156200023f578482018401518183018501529083019062000220565b828211156200025057878484830101525b928801516040909801519299979850919695505050505050565b60008219821115620002805762000280620002e4565b500190565b6000816000190483118215151615620002a257620002a2620002e4565b500290565b600181811c90821680620002bc57607f821691505b60208210811415620002de57634e487b7160e01b600052602260045260246000fd5b50919050565b634e487b7160e01b600052601160045260246000fd5b634e487b7160e01b600052604160045260246000fd5b61076b80620003206000396000f3fe60806040526004361061008a5760003560e01c80638d322406116100595780638d322406146101335780638da5cb5b1461017e578063ac307773146101a6578063ed88c68e146101bb578063f2fde38b146101c357600080fd5b80635f410b22146100ce578063715018a6146100f2578063828cfdfd1461010957806383da473e1461011e57600080fd5b366100c957604080513381523460208201527f88a5966d370b9919b20f3e2c13ff65706f196a4e32cc2c12bf57088f88525874910160405180910390a1005b600080fd5b3480156100da57600080fd5b506002545b6040519081526020015b60405180910390f35b3480156100fe57600080fd5b506101076101e3565b005b34801561011557600080fd5b506003546100df565b34801561012a57600080fd5b506006546100df565b34801561013f57600080fd5b5061015361014e366004610670565b6101f7565b6040805182516001600160a01b031681526020808401519082015291810151908201526060016100e9565b34801561018a57600080fd5b506000546040516001600160a01b0390911681526020016100e9565b3480156101b257600080fd5b50610107610266565b61010761034f565b3480156101cf57600080fd5b506101076101de366004610642565b6104b5565b6101eb61052e565b6101f56000610588565b565b610224604051806060016040528060006001600160a01b0316815260200160008152602001600081525090565b50600090815260056020908152604091829020825160608101845281546001600160a01b03168152600182015492810192909252600201549181019190915290565b61026e61052e565b60045442106102d45760405162461bcd60e51b815260206004820152602760248201527f5468652066756e64696e67207068617365206973207374696c6c20696e20707260448201526637b3b932b9b99760c91b60648201526084015b60405180910390fd5b600080546003546040516001600160a01b039092169281156108fc029290818181858888f1935050505015801561030f573d6000803e3d6000fd5b5060035460405190815233907fa65a8b4f7f65a1063243d7f7e9e4da00ff767599acf21549ef2548a45d1695ae9060200160405180910390a26000600355565b61038e6040518060400160405280601881526020017f446f6e6174696f6e2072656365697665642066726f6d3a200000000000000000815250336105d8565b60045442106103f35760405162461bcd60e51b815260206004820152602b60248201527f5468652066756e64696e67207068617365206f6620746869732070726f6a656360448201526a3a1034b99032b73232b21760a91b60648201526084016102cb565b604080516060810182523381524260208083019182523483850181815260065460009081526005909352948220935184546001600160a01b0319166001600160a01b0390911617845591516001840155925160029092019190915560038054919290916104619084906106ec565b909155505060065460405134815233907f71adcff281b29ce9baf84e45b10a812e86c7aa9444c3cf519b37fae0aa7b26d29060200160405180910390a3600680549060006104ae83610704565b9190505550565b6104bd61052e565b6001600160a01b0381166105225760405162461bcd60e51b815260206004820152602660248201527f4f776e61626c653a206e6577206f776e657220697320746865207a65726f206160448201526564647265737360d01b60648201526084016102cb565b61052b81610588565b50565b6000546001600160a01b031633146101f55760405162461bcd60e51b815260206004820181905260248201527f4f776e61626c653a2063616c6c6572206973206e6f7420746865206f776e657260448201526064016102cb565b600080546001600160a01b038381166001600160a01b0319831681178455604051919092169283917f8be0079c531659141344cd1fd0a4f28419497f9722a3daafe3b4186f6b6457e09190a35050565b61061d82826040516024016105ee929190610688565b60408051601f198184030181529190526020810180516001600160e01b031663319af33360e01b179052610621565b5050565b80516a636f6e736f6c652e6c6f67602083016000808483855afa5050505050565b600060208284031215610653578081fd5b81356001600160a01b0381168114610669578182fd5b9392505050565b600060208284031215610681578081fd5b5035919050565b6040815260008351806040840152815b818110156106b55760208187018101516060868401015201610698565b818111156106c65782606083860101525b506001600160a01b0393909316602083015250601f91909101601f191601606001919050565b600082198211156106ff576106ff61071f565b500190565b60006000198214156107185761071861071f565b5060010190565b634e487b7160e01b600052601160045260246000fdfea2646970667358221220b581dc4967bbe45208c9ba19bdc3879288e21eba982042ca3c14d2b6d6ac7e8664736f6c63430008040033a264697066735822122060bb1fbee31794407f48042dc43bda87d2bd22eb4d7c7d79e479980a1dca48d264736f6c63430008040033","opcodes":"PUSH1 0x80 PUSH1 0x40 MSTORE PUSH1 0x0 PUSH1 0x2 SSTORE CALLVALUE DUP1 ISZERO PUSH2 0x15 JUMPI PUSH1 0x0 DUP1 REVERT JUMPDEST POP PUSH2 0x1F CALLER PUSH2 0x24 JUMP JUMPDEST PUSH2 0x74 JUMP JUMPDEST PUSH1 0x0 DUP1 SLOAD PUSH1 0x1 PUSH1 0x1 PUSH1 0xA0 SHL SUB DUP4 DUP2 AND PUSH1 0x1 PUSH1 0x1 PUSH1 0xA0 SHL SUB NOT DUP4 AND DUP2 OR DUP5 SSTORE PUSH1 0x40 MLOAD SWAP2 SWAP1 SWAP3 AND SWAP3 DUP4 SWAP2 PUSH32 0x8BE0079C531659141344CD1FD0A4F28419497F9722A3DAAFE3B4186F6B6457E0 SWAP2 SWAP1 LOG3 POP POP JUMP JUMPDEST PUSH2 0x12F8 DUP1 PUSH2 0x83 PUSH1 0x0 CODECOPY PUSH1 0x0 RETURN INVALID PUSH1 0x80 PUSH1 0x40 MSTORE CALLVALUE DUP1 ISZERO PUSH3 0x11 JUMPI PUSH1 0x0 DUP1 REVERT JUMPDEST POP PUSH1 0x4 CALLDATASIZE LT PUSH3 0x5E JUMPI PUSH1 0x0 CALLDATALOAD PUSH1 0xE0 SHR DUP1 PUSH4 0x3020580B EQ PUSH3 0x63 JUMPI DUP1 PUSH4 0x715018A6 EQ PUSH3 0x92 JUMPI DUP1 PUSH4 0x8DA5CB5B EQ PUSH3 0x9E JUMPI DUP1 PUSH4 0xE1231EC5 EQ PUSH3 0xC4 JUMPI DUP1 PUSH4 0xF2FDE38B EQ PUSH3 0xF0 JUMPI JUMPDEST PUSH1 0x0 DUP1 REVERT JUMPDEST PUSH3 0x7A PUSH3 0x74 CALLDATASIZE PUSH1 0x4 PUSH3 0x601 JUMP JUMPDEST PUSH3 0x107 JUMP JUMPDEST PUSH1 0x40 MLOAD PUSH3 0x89 SWAP2 SWAP1 PUSH3 0x72E JUMP JUMPDEST PUSH1 0x40 MLOAD DUP1 SWAP2 SUB SWAP1 RETURN JUMPDEST PUSH3 0x9C PUSH3 0x218 JUMP JUMPDEST STOP JUMPDEST PUSH1 0x0 SLOAD PUSH1 0x1 PUSH1 0x1 PUSH1 0xA0 SHL SUB AND JUMPDEST PUSH1 0x40 MLOAD PUSH1 0x1 PUSH1 0x1 PUSH1 0xA0 SHL SUB SWAP1 SWAP2 AND DUP2 MSTORE PUSH1 0x20 ADD PUSH3 0x89 JUMP JUMPDEST PUSH3 0xAB PUSH3 0xD5 CALLDATASIZE PUSH1 0x4 PUSH3 0x6C7 JUMP JUMPDEST PUSH1 0x0 SWAP1 DUP2 MSTORE PUSH1 0x1 PUSH1 0x20 MSTORE PUSH1 0x40 SWAP1 KECCAK256 SLOAD PUSH1 0x1 PUSH1 0x1 PUSH1 0xA0 SHL SUB AND SWAP1 JUMP JUMPDEST PUSH3 0x9C PUSH3 0x101 CALLDATASIZE PUSH1 0x4 PUSH3 0x5D8 JUMP JUMPDEST PUSH3 0x230 JUMP JUMPDEST PUSH1 0x60 PUSH1 0x0 DUP5 DUP5 DUP5 PUSH1 0x40 MLOAD PUSH3 0x11C SWAP1 PUSH3 0x5CA JUMP JUMPDEST PUSH3 0x12A SWAP4 SWAP3 SWAP2 SWAP1 PUSH3 0x76F JUMP JUMPDEST PUSH1 0x40 MLOAD DUP1 SWAP2 SUB SWAP1 PUSH1 0x0 CREATE DUP1 ISZERO DUP1 ISZERO PUSH3 0x147 JUMPI RETURNDATASIZE PUSH1 0x0 DUP1 RETURNDATACOPY RETURNDATASIZE PUSH1 0x0 REVERT JUMPDEST POP PUSH1 0x2 DUP1 SLOAD PUSH1 0x0 SWAP1 DUP2 MSTORE PUSH1 0x1 PUSH1 0x20 MSTORE PUSH1 0x40 DUP2 KECCAK256 DUP1 SLOAD PUSH1 0x1 PUSH1 0x1 PUSH1 0xA0 SHL SUB NOT AND PUSH1 0x1 PUSH1 0x1 PUSH1 0xA0 SHL SUB DUP6 AND OR SWAP1 SSTORE DUP2 SLOAD SWAP3 SWAP4 POP PUSH3 0x183 DUP4 PUSH3 0x7ED JUMP JUMPDEST SWAP2 SWAP1 POP SSTORE POP PUSH3 0x1C1 PUSH1 0x40 MLOAD DUP1 PUSH1 0x40 ADD PUSH1 0x40 MSTORE DUP1 PUSH1 0x15 DUP2 MSTORE PUSH1 0x20 ADD PUSH21 0x21B0B6B830B4B3B71031B932B0BA32B21030BA1D1 PUSH1 0x5D SHL DUP2 MSTORE POP DUP3 PUSH3 0x2B3 JUMP JUMPDEST PUSH1 0x2 SLOAD PUSH1 0x40 MLOAD DUP6 DUP2 MSTORE CALLER SWAP1 PUSH32 0x681F945F90CA3793B37315ED6A012353C82C1B37CA023EF835C746461359F552 SWAP1 PUSH1 0x20 ADD PUSH1 0x40 MLOAD DUP1 SWAP2 SUB SWAP1 LOG3 PUSH3 0x20F DUP2 PUSH1 0x1 PUSH1 0x1 PUSH1 0xA0 SHL SUB AND PUSH1 0x14 PUSH3 0x300 JUMP JUMPDEST SWAP6 SWAP5 POP POP POP POP POP JUMP JUMPDEST PUSH3 0x222 PUSH3 0x4FD JUMP JUMPDEST PUSH3 0x22E PUSH1 0x0 PUSH3 0x559 JUMP JUMPDEST JUMP JUMPDEST PUSH3 0x23A PUSH3 0x4FD JUMP JUMPDEST PUSH1 0x1 PUSH1 0x1 PUSH1 0xA0 SHL SUB DUP2 AND PUSH3 0x2A5 JUMPI PUSH1 0x40 MLOAD PUSH3 0x461BCD PUSH1 0xE5 SHL DUP2 MSTORE PUSH1 0x20 PUSH1 0x4 DUP3 ADD MSTORE PUSH1 0x26 PUSH1 0x24 DUP3 ADD MSTORE PUSH32 0x4F776E61626C653A206E6577206F776E657220697320746865207A65726F2061 PUSH1 0x44 DUP3 ADD MSTORE PUSH6 0x646472657373 PUSH1 0xD0 SHL PUSH1 0x64 DUP3 ADD MSTORE PUSH1 0x84 ADD JUMPDEST PUSH1 0x40 MLOAD DUP1 SWAP2 SUB SWAP1 REVERT JUMPDEST PUSH3 0x2B0 DUP2 PUSH3 0x559 JUMP JUMPDEST POP JUMP JUMPDEST PUSH3 0x2FC DUP3 DUP3 PUSH1 0x40 MLOAD PUSH1 0x24 ADD PUSH3 0x2CC SWAP3 SWAP2 SWAP1 PUSH3 0x743 JUMP JUMPDEST PUSH1 0x40 DUP1 MLOAD PUSH1 0x1F NOT DUP2 DUP5 SUB ADD DUP2 MSTORE SWAP2 SWAP1 MSTORE PUSH1 0x20 DUP2 ADD DUP1 MLOAD PUSH1 0x1 PUSH1 0x1 PUSH1 0xE0 SHL SUB AND PUSH4 0x319AF333 PUSH1 0xE0 SHL OR SWAP1 MSTORE PUSH3 0x5A9 JUMP JUMPDEST POP POP JUMP JUMPDEST PUSH1 0x60 PUSH1 0x0 PUSH3 0x311 DUP4 PUSH1 0x2 PUSH3 0x7B1 JUMP JUMPDEST PUSH3 0x31E SWAP1 PUSH1 0x2 PUSH3 0x796 JUMP JUMPDEST PUSH8 0xFFFFFFFFFFFFFFFF DUP2 GT ISZERO PUSH3 0x345 JUMPI PUSH4 0x4E487B71 PUSH1 0xE0 SHL PUSH1 0x0 MSTORE PUSH1 0x41 PUSH1 0x4 MSTORE PUSH1 0x24 PUSH1 0x0 REVERT JUMPDEST PUSH1 0x40 MLOAD SWAP1 DUP1 DUP3 MSTORE DUP1 PUSH1 0x1F ADD PUSH1 0x1F NOT AND PUSH1 0x20 ADD DUP3 ADD PUSH1 0x40 MSTORE DUP1 ISZERO PUSH3 0x370 JUMPI PUSH1 0x20 DUP3 ADD DUP2 DUP1 CALLDATASIZE DUP4 CALLDATACOPY ADD SWAP1 POP JUMPDEST POP SWAP1 POP PUSH1 0x3 PUSH1 0xFC SHL DUP2 PUSH1 0x0 DUP2 MLOAD DUP2 LT PUSH3 0x39A JUMPI PUSH4 0x4E487B71 PUSH1 0xE0 SHL PUSH1 0x0 MSTORE PUSH1 0x32 PUSH1 0x4 MSTORE PUSH1 0x24 PUSH1 0x0 REVERT JUMPDEST PUSH1 0x20 ADD ADD SWAP1 PUSH1 0x1 PUSH1 0x1 PUSH1 0xF8 SHL SUB NOT AND SWAP1 DUP2 PUSH1 0x0 BYTE SWAP1 MSTORE8 POP PUSH1 0xF PUSH1 0xFB SHL DUP2 PUSH1 0x1 DUP2 MLOAD DUP2 LT PUSH3 0x3D8 JUMPI PUSH4 0x4E487B71 PUSH1 0xE0 SHL PUSH1 0x0 MSTORE PUSH1 0x32 PUSH1 0x4 MSTORE PUSH1 0x24 PUSH1 0x0 REVERT JUMPDEST PUSH1 0x20 ADD ADD SWAP1 PUSH1 0x1 PUSH1 0x1 PUSH1 0xF8 SHL SUB NOT AND SWAP1 DUP2 PUSH1 0x0 BYTE SWAP1 MSTORE8 POP PUSH1 0x0 PUSH3 0x3FE DUP5 PUSH1 0x2 PUSH3 0x7B1 JUMP JUMPDEST PUSH3 0x40B SWAP1 PUSH1 0x1 PUSH3 0x796 JUMP JUMPDEST SWAP1 POP JUMPDEST PUSH1 0x1 DUP2 GT ISZERO PUSH3 0x4A5 JUMPI PUSH16 0x181899199A1A9B1B9C1CB0B131B232B3 PUSH1 0x81 SHL DUP6 PUSH1 0xF AND PUSH1 0x10 DUP2 LT PUSH3 0x44F JUMPI PUSH4 0x4E487B71 PUSH1 0xE0 SHL PUSH1 0x0 MSTORE PUSH1 0x32 PUSH1 0x4 MSTORE PUSH1 0x24 PUSH1 0x0 REVERT JUMPDEST BYTE PUSH1 0xF8 SHL DUP3 DUP3 DUP2 MLOAD DUP2 LT PUSH3 0x474 JUMPI PUSH4 0x4E487B71 PUSH1 0xE0 SHL PUSH1 0x0 MSTORE PUSH1 0x32 PUSH1 0x4 MSTORE PUSH1 0x24 PUSH1 0x0 REVERT JUMPDEST PUSH1 0x20 ADD ADD SWAP1 PUSH1 0x1 PUSH1 0x1 PUSH1 0xF8 SHL SUB NOT AND SWAP1 DUP2 PUSH1 0x0 BYTE SWAP1 MSTORE8 POP PUSH1 0x4 SWAP5 SWAP1 SWAP5 SHR SWAP4 PUSH3 0x49D DUP2 PUSH3 0x7D3 JUMP JUMPDEST SWAP1 POP PUSH3 0x40E JUMP JUMPDEST POP DUP4 ISZERO PUSH3 0x4F6 JUMPI PUSH1 0x40 MLOAD PUSH3 0x461BCD PUSH1 0xE5 SHL DUP2 MSTORE PUSH1 0x20 PUSH1 0x4 DUP3 ADD DUP2 SWAP1 MSTORE PUSH1 0x24 DUP3 ADD MSTORE PUSH32 0x537472696E67733A20686578206C656E67746820696E73756666696369656E74 PUSH1 0x44 DUP3 ADD MSTORE PUSH1 0x64 ADD PUSH3 0x29C JUMP JUMPDEST SWAP4 SWAP3 POP POP POP JUMP JUMPDEST PUSH1 0x0 SLOAD PUSH1 0x1 PUSH1 0x1 PUSH1 0xA0 SHL SUB AND CALLER EQ PUSH3 0x22E JUMPI PUSH1 0x40 MLOAD PUSH3 0x461BCD PUSH1 0xE5 SHL DUP2 MSTORE PUSH1 0x20 PUSH1 0x4 DUP3 ADD DUP2 SWAP1 MSTORE PUSH1 0x24 DUP3 ADD MSTORE PUSH32 0x4F776E61626C653A2063616C6C6572206973206E6F7420746865206F776E6572 PUSH1 0x44 DUP3 ADD MSTORE PUSH1 0x64 ADD PUSH3 0x29C JUMP JUMPDEST PUSH1 0x0 DUP1 SLOAD PUSH1 0x1 PUSH1 0x1 PUSH1 0xA0 SHL SUB DUP4 DUP2 AND PUSH1 0x1 PUSH1 0x1 PUSH1 0xA0 SHL SUB NOT DUP4 AND DUP2 OR DUP5 SSTORE PUSH1 0x40 MLOAD SWAP2 SWAP1 SWAP3 AND SWAP3 DUP4 SWAP2 PUSH32 0x8BE0079C531659141344CD1FD0A4F28419497F9722A3DAAFE3B4186F6B6457E0 SWAP2 SWAP1 LOG3 POP POP JUMP JUMPDEST DUP1 MLOAD PUSH11 0x636F6E736F6C652E6C6F67 PUSH1 0x20 DUP4 ADD PUSH1 0x0 DUP1 DUP5 DUP4 DUP6 GAS STATICCALL POP POP POP POP POP JUMP JUMPDEST PUSH2 0xA8B DUP1 PUSH3 0x838 DUP4 CODECOPY ADD SWAP1 JUMP JUMPDEST PUSH1 0x0 PUSH1 0x20 DUP3 DUP5 SUB SLT ISZERO PUSH3 0x5EA JUMPI DUP1 DUP2 REVERT JUMPDEST DUP2 CALLDATALOAD PUSH1 0x1 PUSH1 0x1 PUSH1 0xA0 SHL SUB DUP2 AND DUP2 EQ PUSH3 0x4F6 JUMPI DUP2 DUP3 REVERT JUMPDEST PUSH1 0x0 DUP1 PUSH1 0x0 PUSH1 0x60 DUP5 DUP7 SUB SLT ISZERO PUSH3 0x616 JUMPI DUP2 DUP3 REVERT JUMPDEST DUP4 CALLDATALOAD PUSH8 0xFFFFFFFFFFFFFFFF DUP1 DUP3 GT ISZERO PUSH3 0x62E JUMPI DUP4 DUP5 REVERT JUMPDEST DUP2 DUP7 ADD SWAP2 POP DUP7 PUSH1 0x1F DUP4 ADD SLT PUSH3 0x642 JUMPI DUP4 DUP5 REVERT JUMPDEST DUP2 CALLDATALOAD DUP2 DUP2 GT ISZERO PUSH3 0x657 JUMPI PUSH3 0x657 PUSH3 0x821 JUMP JUMPDEST PUSH1 0x40 MLOAD PUSH1 0x1F DUP3 ADD PUSH1 0x1F NOT SWAP1 DUP2 AND PUSH1 0x3F ADD AND DUP2 ADD SWAP1 DUP4 DUP3 GT DUP2 DUP4 LT OR ISZERO PUSH3 0x682 JUMPI PUSH3 0x682 PUSH3 0x821 JUMP JUMPDEST DUP2 PUSH1 0x40 MSTORE DUP3 DUP2 MSTORE DUP10 PUSH1 0x20 DUP5 DUP8 ADD ADD GT ISZERO PUSH3 0x69B JUMPI DUP7 DUP8 REVERT JUMPDEST DUP3 PUSH1 0x20 DUP7 ADD PUSH1 0x20 DUP4 ADD CALLDATACOPY SWAP2 DUP3 ADD PUSH1 0x20 SWAP1 DUP2 ADD SWAP7 SWAP1 SWAP7 MSTORE POP SWAP8 SWAP4 DUP7 ADD CALLDATALOAD SWAP7 POP POP POP PUSH1 0x40 SWAP1 SWAP4 ADD CALLDATALOAD SWAP3 POP SWAP1 POP JUMP JUMPDEST PUSH1 0x0 PUSH1 0x20 DUP3 DUP5 SUB SLT ISZERO PUSH3 0x6D9 JUMPI DUP1 DUP2 REVERT JUMPDEST POP CALLDATALOAD SWAP2 SWAP1 POP JUMP JUMPDEST PUSH1 0x0 DUP2 MLOAD DUP1 DUP5 MSTORE DUP2 JUMPDEST DUP2 DUP2 LT ISZERO PUSH3 0x707 JUMPI PUSH1 0x20 DUP2 DUP6 ADD DUP2 ADD MLOAD DUP7 DUP4 ADD DUP3 ADD MSTORE ADD PUSH3 0x6E9 JUMP JUMPDEST DUP2 DUP2 GT ISZERO PUSH3 0x719 JUMPI DUP3 PUSH1 0x20 DUP4 DUP8 ADD ADD MSTORE JUMPDEST POP PUSH1 0x1F ADD PUSH1 0x1F NOT AND SWAP3 SWAP1 SWAP3 ADD PUSH1 0x20 ADD SWAP3 SWAP2 POP POP JUMP JUMPDEST PUSH1 0x20 DUP2 MSTORE PUSH1 0x0 PUSH3 0x4F6 PUSH1 0x20 DUP4 ADD DUP5 PUSH3 0x6E0 JUMP JUMPDEST PUSH1 0x40 DUP2 MSTORE PUSH1 0x0 PUSH3 0x758 PUSH1 0x40 DUP4 ADD DUP6 PUSH3 0x6E0 JUMP JUMPDEST SWAP1 POP PUSH1 0x1 DUP1 PUSH1 0xA0 SHL SUB DUP4 AND PUSH1 0x20 DUP4 ADD MSTORE SWAP4 SWAP3 POP POP POP JUMP JUMPDEST PUSH1 0x60 DUP2 MSTORE PUSH1 0x0 PUSH3 0x784 PUSH1 0x60 DUP4 ADD DUP7 PUSH3 0x6E0 JUMP JUMPDEST PUSH1 0x20 DUP4 ADD SWAP5 SWAP1 SWAP5 MSTORE POP PUSH1 0x40 ADD MSTORE SWAP2 SWAP1 POP JUMP JUMPDEST PUSH1 0x0 DUP3 NOT DUP3 GT ISZERO PUSH3 0x7AC JUMPI PUSH3 0x7AC PUSH3 0x80B JUMP JUMPDEST POP ADD SWAP1 JUMP JUMPDEST PUSH1 0x0 DUP2 PUSH1 0x0 NOT DIV DUP4 GT DUP3 ISZERO ISZERO AND ISZERO PUSH3 0x7CE JUMPI PUSH3 0x7CE PUSH3 0x80B JUMP JUMPDEST POP MUL SWAP1 JUMP JUMPDEST PUSH1 0x0 DUP2 PUSH3 0x7E5 JUMPI PUSH3 0x7E5 PUSH3 0x80B JUMP JUMPDEST POP PUSH1 0x0 NOT ADD SWAP1 JUMP JUMPDEST PUSH1 0x0 PUSH1 0x0 NOT DUP3 EQ ISZERO PUSH3 0x804 JUMPI PUSH3 0x804 PUSH3 0x80B JUMP JUMPDEST POP PUSH1 0x1 ADD SWAP1 JUMP JUMPDEST PUSH4 0x4E487B71 PUSH1 0xE0 SHL PUSH1 0x0 MSTORE PUSH1 0x11 PUSH1 0x4 MSTORE PUSH1 0x24 PUSH1 0x0 REVERT JUMPDEST PUSH4 0x4E487B71 PUSH1 0xE0 SHL PUSH1 0x0 MSTORE PUSH1 0x41 PUSH1 0x4 MSTORE PUSH1 0x24 PUSH1 0x0 REVERT INVALID PUSH1 0x80 PUSH1 0x40 MSTORE PUSH1 0x0 PUSH1 0x3 SSTORE PUSH1 0x0 PUSH1 0x6 SSTORE CALLVALUE DUP1 ISZERO PUSH3 0x1B JUMPI PUSH1 0x0 DUP1 REVERT JUMPDEST POP PUSH1 0x40 MLOAD PUSH3 0xA8B CODESIZE SUB DUP1 PUSH3 0xA8B DUP4 CODECOPY DUP2 ADD PUSH1 0x40 DUP2 SWAP1 MSTORE PUSH3 0x3E SWAP2 PUSH3 0x180 JUMP JUMPDEST PUSH3 0x49 CALLER PUSH3 0x8A JUMP JUMPDEST DUP3 MLOAD PUSH3 0x5E SWAP1 PUSH1 0x1 SWAP1 PUSH1 0x20 DUP7 ADD SWAP1 PUSH3 0xDA JUMP JUMPDEST POP PUSH1 0x2 DUP3 SWAP1 SSTORE PUSH3 0x71 DUP2 PUSH1 0x3C PUSH3 0x285 JUMP JUMPDEST PUSH3 0x7D SWAP1 TIMESTAMP PUSH3 0x26A JUMP JUMPDEST PUSH1 0x4 SSTORE POP PUSH3 0x310 SWAP2 POP POP JUMP JUMPDEST PUSH1 0x0 DUP1 SLOAD PUSH1 0x1 PUSH1 0x1 PUSH1 0xA0 SHL SUB DUP4 DUP2 AND PUSH1 0x1 PUSH1 0x1 PUSH1 0xA0 SHL SUB NOT DUP4 AND DUP2 OR DUP5 SSTORE PUSH1 0x40 MLOAD SWAP2 SWAP1 SWAP3 AND SWAP3 DUP4 SWAP2 PUSH32 0x8BE0079C531659141344CD1FD0A4F28419497F9722A3DAAFE3B4186F6B6457E0 SWAP2 SWAP1 LOG3 POP POP JUMP JUMPDEST DUP3 DUP1 SLOAD PUSH3 0xE8 SWAP1 PUSH3 0x2A7 JUMP JUMPDEST SWAP1 PUSH1 0x0 MSTORE PUSH1 0x20 PUSH1 0x0 KECCAK256 SWAP1 PUSH1 0x1F ADD PUSH1 0x20 SWAP1 DIV DUP2 ADD SWAP3 DUP3 PUSH3 0x10C JUMPI PUSH1 0x0 DUP6 SSTORE PUSH3 0x157 JUMP JUMPDEST DUP3 PUSH1 0x1F LT PUSH3 0x127 JUMPI DUP1 MLOAD PUSH1 0xFF NOT AND DUP4 DUP1 ADD OR DUP6 SSTORE PUSH3 0x157 JUMP JUMPDEST DUP3 DUP1 ADD PUSH1 0x1 ADD DUP6 SSTORE DUP3 ISZERO PUSH3 0x157 JUMPI SWAP2 DUP3 ADD JUMPDEST DUP3 DUP2 GT ISZERO PUSH3 0x157 JUMPI DUP3 MLOAD DUP3 SSTORE SWAP2 PUSH1 0x20 ADD SWAP2 SWAP1 PUSH1 0x1 ADD SWAP1 PUSH3 0x13A JUMP JUMPDEST POP PUSH3 0x165 SWAP3 SWAP2 POP PUSH3 0x169 JUMP JUMPDEST POP SWAP1 JUMP JUMPDEST JUMPDEST DUP1 DUP3 GT ISZERO PUSH3 0x165 JUMPI PUSH1 0x0 DUP2 SSTORE PUSH1 0x1 ADD PUSH3 0x16A JUMP JUMPDEST PUSH1 0x0 DUP1 PUSH1 0x0 PUSH1 0x60 DUP5 DUP7 SUB SLT ISZERO PUSH3 0x195 JUMPI DUP3 DUP4 REVERT JUMPDEST DUP4 MLOAD PUSH1 0x1 PUSH1 0x1 PUSH1 0x40 SHL SUB DUP1 DUP3 GT ISZERO PUSH3 0x1AC JUMPI DUP5 DUP6 REVERT JUMPDEST DUP2 DUP7 ADD SWAP2 POP DUP7 PUSH1 0x1F DUP4 ADD SLT PUSH3 0x1C0 JUMPI DUP5 DUP6 REVERT JUMPDEST DUP2 MLOAD DUP2 DUP2 GT ISZERO PUSH3 0x1D5 JUMPI PUSH3 0x1D5 PUSH3 0x2FA JUMP JUMPDEST PUSH1 0x40 MLOAD PUSH1 0x1F DUP3 ADD PUSH1 0x1F NOT SWAP1 DUP2 AND PUSH1 0x3F ADD AND DUP2 ADD SWAP1 DUP4 DUP3 GT DUP2 DUP4 LT OR ISZERO PUSH3 0x200 JUMPI PUSH3 0x200 PUSH3 0x2FA JUMP JUMPDEST DUP2 PUSH1 0x40 MSTORE DUP3 DUP2 MSTORE PUSH1 0x20 SWAP4 POP DUP10 DUP5 DUP5 DUP8 ADD ADD GT ISZERO PUSH3 0x21C JUMPI DUP8 DUP9 REVERT JUMPDEST DUP8 SWAP2 POP JUMPDEST DUP3 DUP3 LT ISZERO PUSH3 0x23F JUMPI DUP5 DUP3 ADD DUP5 ADD MLOAD DUP2 DUP4 ADD DUP6 ADD MSTORE SWAP1 DUP4 ADD SWAP1 PUSH3 0x220 JUMP JUMPDEST DUP3 DUP3 GT ISZERO PUSH3 0x250 JUMPI DUP8 DUP5 DUP5 DUP4 ADD ADD MSTORE JUMPDEST SWAP3 DUP9 ADD MLOAD PUSH1 0x40 SWAP1 SWAP9 ADD MLOAD SWAP3 SWAP10 SWAP8 SWAP9 POP SWAP2 SWAP7 SWAP6 POP POP POP POP POP POP JUMP JUMPDEST PUSH1 0x0 DUP3 NOT DUP3 GT ISZERO PUSH3 0x280 JUMPI PUSH3 0x280 PUSH3 0x2E4 JUMP JUMPDEST POP ADD SWAP1 JUMP JUMPDEST PUSH1 0x0 DUP2 PUSH1 0x0 NOT DIV DUP4 GT DUP3 ISZERO ISZERO AND ISZERO PUSH3 0x2A2 JUMPI PUSH3 0x2A2 PUSH3 0x2E4 JUMP JUMPDEST POP MUL SWAP1 JUMP JUMPDEST PUSH1 0x1 DUP2 DUP2 SHR SWAP1 DUP3 AND DUP1 PUSH3 0x2BC JUMPI PUSH1 0x7F DUP3 AND SWAP2 POP JUMPDEST PUSH1 0x20 DUP3 LT DUP2 EQ ISZERO PUSH3 0x2DE JUMPI PUSH4 0x4E487B71 PUSH1 0xE0 SHL PUSH1 0x0 MSTORE PUSH1 0x22 PUSH1 0x4 MSTORE PUSH1 0x24 PUSH1 0x0 REVERT JUMPDEST POP SWAP2 SWAP1 POP JUMP JUMPDEST PUSH4 0x4E487B71 PUSH1 0xE0 SHL PUSH1 0x0 MSTORE PUSH1 0x11 PUSH1 0x4 MSTORE PUSH1 0x24 PUSH1 0x0 REVERT JUMPDEST PUSH4 0x4E487B71 PUSH1 0xE0 SHL PUSH1 0x0 MSTORE PUSH1 0x41 PUSH1 0x4 MSTORE PUSH1 0x24 PUSH1 0x0 REVERT JUMPDEST PUSH2 0x76B DUP1 PUSH3 0x320 PUSH1 0x0 CODECOPY PUSH1 0x0 RETURN INVALID PUSH1 0x80 PUSH1 0x40 MSTORE PUSH1 0x4 CALLDATASIZE LT PUSH2 0x8A JUMPI PUSH1 0x0 CALLDATALOAD PUSH1 0xE0 SHR DUP1 PUSH4 0x8D322406 GT PUSH2 0x59 JUMPI DUP1 PUSH4 0x8D322406 EQ PUSH2 0x133 JUMPI DUP1 PUSH4 0x8DA5CB5B EQ PUSH2 0x17E JUMPI DUP1 PUSH4 0xAC307773 EQ PUSH2 0x1A6 JUMPI DUP1 PUSH4 0xED88C68E EQ PUSH2 0x1BB JUMPI DUP1 PUSH4 0xF2FDE38B EQ PUSH2 0x1C3 JUMPI PUSH1 0x0 DUP1 REVERT JUMPDEST DUP1 PUSH4 0x5F410B22 EQ PUSH2 0xCE JUMPI DUP1 PUSH4 0x715018A6 EQ PUSH2 0xF2 JUMPI DUP1 PUSH4 0x828CFDFD EQ PUSH2 0x109 JUMPI DUP1 PUSH4 0x83DA473E EQ PUSH2 0x11E JUMPI PUSH1 0x0 DUP1 REVERT JUMPDEST CALLDATASIZE PUSH2 0xC9 JUMPI PUSH1 0x40 DUP1 MLOAD CALLER DUP2 MSTORE CALLVALUE PUSH1 0x20 DUP3 ADD MSTORE PUSH32 0x88A5966D370B9919B20F3E2C13FF65706F196A4E32CC2C12BF57088F88525874 SWAP2 ADD PUSH1 0x40 MLOAD DUP1 SWAP2 SUB SWAP1 LOG1 STOP JUMPDEST PUSH1 0x0 DUP1 REVERT JUMPDEST CALLVALUE DUP1 ISZERO PUSH2 0xDA JUMPI PUSH1 0x0 DUP1 REVERT JUMPDEST POP PUSH1 0x2 SLOAD JUMPDEST PUSH1 0x40 MLOAD SWAP1 DUP2 MSTORE PUSH1 0x20 ADD JUMPDEST PUSH1 0x40 MLOAD DUP1 SWAP2 SUB SWAP1 RETURN JUMPDEST CALLVALUE DUP1 ISZERO PUSH2 0xFE JUMPI PUSH1 0x0 DUP1 REVERT JUMPDEST POP PUSH2 0x107 PUSH2 0x1E3 JUMP JUMPDEST STOP JUMPDEST CALLVALUE DUP1 ISZERO PUSH2 0x115 JUMPI PUSH1 0x0 DUP1 REVERT JUMPDEST POP PUSH1 0x3 SLOAD PUSH2 0xDF JUMP JUMPDEST CALLVALUE DUP1 ISZERO PUSH2 0x12A JUMPI PUSH1 0x0 DUP1 REVERT JUMPDEST POP PUSH1 0x6 SLOAD PUSH2 0xDF JUMP JUMPDEST CALLVALUE DUP1 ISZERO PUSH2 0x13F JUMPI PUSH1 0x0 DUP1 REVERT JUMPDEST POP PUSH2 0x153 PUSH2 0x14E CALLDATASIZE PUSH1 0x4 PUSH2 0x670 JUMP JUMPDEST PUSH2 0x1F7 JUMP JUMPDEST PUSH1 0x40 DUP1 MLOAD DUP3 MLOAD PUSH1 0x1 PUSH1 0x1 PUSH1 0xA0 SHL SUB AND DUP2 MSTORE PUSH1 0x20 DUP1 DUP5 ADD MLOAD SWAP1 DUP3 ADD MSTORE SWAP2 DUP2 ADD MLOAD SWAP1 DUP3 ADD MSTORE PUSH1 0x60 ADD PUSH2 0xE9 JUMP JUMPDEST CALLVALUE DUP1 ISZERO PUSH2 0x18A JUMPI PUSH1 0x0 DUP1 REVERT JUMPDEST POP PUSH1 0x0 SLOAD PUSH1 0x40 MLOAD PUSH1 0x1 PUSH1 0x1 PUSH1 0xA0 SHL SUB SWAP1 SWAP2 AND DUP2 MSTORE PUSH1 0x20 ADD PUSH2 0xE9 JUMP JUMPDEST CALLVALUE DUP1 ISZERO PUSH2 0x1B2 JUMPI PUSH1 0x0 DUP1 REVERT JUMPDEST POP PUSH2 0x107 PUSH2 0x266 JUMP JUMPDEST PUSH2 0x107 PUSH2 0x34F JUMP JUMPDEST CALLVALUE DUP1 ISZERO PUSH2 0x1CF JUMPI PUSH1 0x0 DUP1 REVERT JUMPDEST POP PUSH2 0x107 PUSH2 0x1DE CALLDATASIZE PUSH1 0x4 PUSH2 0x642 JUMP JUMPDEST PUSH2 0x4B5 JUMP JUMPDEST PUSH2 0x1EB PUSH2 0x52E JUMP JUMPDEST PUSH2 0x1F5 PUSH1 0x0 PUSH2 0x588 JUMP JUMPDEST JUMP JUMPDEST PUSH2 0x224 PUSH1 0x40 MLOAD DUP1 PUSH1 0x60 ADD PUSH1 0x40 MSTORE DUP1 PUSH1 0x0 PUSH1 0x1 PUSH1 0x1 PUSH1 0xA0 SHL SUB AND DUP2 MSTORE PUSH1 0x20 ADD PUSH1 0x0 DUP2 MSTORE PUSH1 0x20 ADD PUSH1 0x0 DUP2 MSTORE POP SWAP1 JUMP JUMPDEST POP PUSH1 0x0 SWAP1 DUP2 MSTORE PUSH1 0x5 PUSH1 0x20 SWAP1 DUP2 MSTORE PUSH1 0x40 SWAP2 DUP3 SWAP1 KECCAK256 DUP3 MLOAD PUSH1 0x60 DUP2 ADD DUP5 MSTORE DUP2 SLOAD PUSH1 0x1 PUSH1 0x1 PUSH1 0xA0 SHL SUB AND DUP2 MSTORE PUSH1 0x1 DUP3 ADD SLOAD SWAP3 DUP2 ADD SWAP3 SWAP1 SWAP3 MSTORE PUSH1 0x2 ADD SLOAD SWAP2 DUP2 ADD SWAP2 SWAP1 SWAP2 MSTORE SWAP1 JUMP JUMPDEST PUSH2 0x26E PUSH2 0x52E JUMP JUMPDEST PUSH1 0x4 SLOAD TIMESTAMP LT PUSH2 0x2D4 JUMPI PUSH1 0x40 MLOAD PUSH3 0x461BCD PUSH1 0xE5 SHL DUP2 MSTORE PUSH1 0x20 PUSH1 0x4 DUP3 ADD MSTORE PUSH1 0x27 PUSH1 0x24 DUP3 ADD MSTORE PUSH32 0x5468652066756E64696E67207068617365206973207374696C6C20696E207072 PUSH1 0x44 DUP3 ADD MSTORE PUSH7 0x37B3B932B9B997 PUSH1 0xC9 SHL PUSH1 0x64 DUP3 ADD MSTORE PUSH1 0x84 ADD JUMPDEST PUSH1 0x40 MLOAD DUP1 SWAP2 SUB SWAP1 REVERT JUMPDEST PUSH1 0x0 DUP1 SLOAD PUSH1 0x3 SLOAD PUSH1 0x40 MLOAD PUSH1 0x1 PUSH1 0x1 PUSH1 0xA0 SHL SUB SWAP1 SWAP3 AND SWAP3 DUP2 ISZERO PUSH2 0x8FC MUL SWAP3 SWAP1 DUP2 DUP2 DUP2 DUP6 DUP9 DUP9 CALL SWAP4 POP POP POP POP ISZERO DUP1 ISZERO PUSH2 0x30F JUMPI RETURNDATASIZE PUSH1 0x0 DUP1 RETURNDATACOPY RETURNDATASIZE PUSH1 0x0 REVERT JUMPDEST POP PUSH1 0x3 SLOAD PUSH1 0x40 MLOAD SWAP1 DUP2 MSTORE CALLER SWAP1 PUSH32 0xA65A8B4F7F65A1063243D7F7E9E4DA00FF767599ACF21549EF2548A45D1695AE SWAP1 PUSH1 0x20 ADD PUSH1 0x40 MLOAD DUP1 SWAP2 SUB SWAP1 LOG2 PUSH1 0x0 PUSH1 0x3 SSTORE JUMP JUMPDEST PUSH2 0x38E PUSH1 0x40 MLOAD DUP1 PUSH1 0x40 ADD PUSH1 0x40 MSTORE DUP1 PUSH1 0x18 DUP2 MSTORE PUSH1 0x20 ADD PUSH32 0x446F6E6174696F6E2072656365697665642066726F6D3A200000000000000000 DUP2 MSTORE POP CALLER PUSH2 0x5D8 JUMP JUMPDEST PUSH1 0x4 SLOAD TIMESTAMP LT PUSH2 0x3F3 JUMPI PUSH1 0x40 MLOAD PUSH3 0x461BCD PUSH1 0xE5 SHL DUP2 MSTORE PUSH1 0x20 PUSH1 0x4 DUP3 ADD MSTORE PUSH1 0x2B PUSH1 0x24 DUP3 ADD MSTORE PUSH32 0x5468652066756E64696E67207068617365206F6620746869732070726F6A6563 PUSH1 0x44 DUP3 ADD MSTORE PUSH11 0x3A1034B99032B73232B217 PUSH1 0xA9 SHL PUSH1 0x64 DUP3 ADD MSTORE PUSH1 0x84 ADD PUSH2 0x2CB JUMP JUMPDEST PUSH1 0x40 DUP1 MLOAD PUSH1 0x60 DUP2 ADD DUP3 MSTORE CALLER DUP2 MSTORE TIMESTAMP PUSH1 0x20 DUP1 DUP4 ADD SWAP2 DUP3 MSTORE CALLVALUE DUP4 DUP6 ADD DUP2 DUP2 MSTORE PUSH1 0x6 SLOAD PUSH1 0x0 SWAP1 DUP2 MSTORE PUSH1 0x5 SWAP1 SWAP4 MSTORE SWAP5 DUP3 KECCAK256 SWAP4 MLOAD DUP5 SLOAD PUSH1 0x1 PUSH1 0x1 PUSH1 0xA0 SHL SUB NOT AND PUSH1 0x1 PUSH1 0x1 PUSH1 0xA0 SHL SUB SWAP1 SWAP2 AND OR DUP5 SSTORE SWAP2 MLOAD PUSH1 0x1 DUP5 ADD SSTORE SWAP3 MLOAD PUSH1 0x2 SWAP1 SWAP3 ADD SWAP2 SWAP1 SWAP2 SSTORE PUSH1 0x3 DUP1 SLOAD SWAP2 SWAP3 SWAP1 SWAP2 PUSH2 0x461 SWAP1 DUP5 SWAP1 PUSH2 0x6EC JUMP JUMPDEST SWAP1 SWAP2 SSTORE POP POP PUSH1 0x6 SLOAD PUSH1 0x40 MLOAD CALLVALUE DUP2 MSTORE CALLER SWAP1 PUSH32 0x71ADCFF281B29CE9BAF84E45B10A812E86C7AA9444C3CF519B37FAE0AA7B26D2 SWAP1 PUSH1 0x20 ADD PUSH1 0x40 MLOAD DUP1 SWAP2 SUB SWAP1 LOG3 PUSH1 0x6 DUP1 SLOAD SWAP1 PUSH1 0x0 PUSH2 0x4AE DUP4 PUSH2 0x704 JUMP JUMPDEST SWAP2 SWAP1 POP SSTORE POP JUMP JUMPDEST PUSH2 0x4BD PUSH2 0x52E JUMP JUMPDEST PUSH1 0x1 PUSH1 0x1 PUSH1 0xA0 SHL SUB DUP2 AND PUSH2 0x522 JUMPI PUSH1 0x40 MLOAD PUSH3 0x461BCD PUSH1 0xE5 SHL DUP2 MSTORE PUSH1 0x20 PUSH1 0x4 DUP3 ADD MSTORE PUSH1 0x26 PUSH1 0x24 DUP3 ADD MSTORE PUSH32 0x4F776E61626C653A206E6577206F776E657220697320746865207A65726F2061 PUSH1 0x44 DUP3 ADD MSTORE PUSH6 0x646472657373 PUSH1 0xD0 SHL PUSH1 0x64 DUP3 ADD MSTORE PUSH1 0x84 ADD PUSH2 0x2CB JUMP JUMPDEST PUSH2 0x52B DUP2 PUSH2 0x588 JUMP JUMPDEST POP JUMP JUMPDEST PUSH1 0x0 SLOAD PUSH1 0x1 PUSH1 0x1 PUSH1 0xA0 SHL SUB AND CALLER EQ PUSH2 0x1F5 JUMPI PUSH1 0x40 MLOAD PUSH3 0x461BCD PUSH1 0xE5 SHL DUP2 MSTORE PUSH1 0x20 PUSH1 0x4 DUP3 ADD DUP2 SWAP1 MSTORE PUSH1 0x24 DUP3 ADD MSTORE PUSH32 0x4F776E61626C653A2063616C6C6572206973206E6F7420746865206F776E6572 PUSH1 0x44 DUP3 ADD MSTORE PUSH1 0x64 ADD PUSH2 0x2CB JUMP JUMPDEST PUSH1 0x0 DUP1 SLOAD PUSH1 0x1 PUSH1 0x1 PUSH1 0xA0 SHL SUB DUP4 DUP2 AND PUSH1 0x1 PUSH1 0x1 PUSH1 0xA0 SHL SUB NOT DUP4 AND DUP2 OR DUP5 SSTORE PUSH1 0x40 MLOAD SWAP2 SWAP1 SWAP3 AND SWAP3 DUP4 SWAP2 PUSH32 0x8BE0079C531659141344CD1FD0A4F28419497F9722A3DAAFE3B4186F6B6457E0 SWAP2 SWAP1 LOG3 POP POP JUMP JUMPDEST PUSH2 0x61D DUP3 DUP3 PUSH1 0x40 MLOAD PUSH1 0x24 ADD PUSH2 0x5EE SWAP3 SWAP2 SWAP1 PUSH2 0x688 JUMP JUMPDEST PUSH1 0x40 DUP1 MLOAD PUSH1 0x1F NOT DUP2 DUP5 SUB ADD DUP2 MSTORE SWAP2 SWAP1 MSTORE PUSH1 0x20 DUP2 ADD DUP1 MLOAD PUSH1 0x1 PUSH1 0x1 PUSH1 0xE0 SHL SUB AND PUSH4 0x319AF333 PUSH1 0xE0 SHL OR SWAP1 MSTORE PUSH2 0x621 JUMP JUMPDEST POP POP JUMP JUMPDEST DUP1 MLOAD PUSH11 0x636F6E736F6C652E6C6F67 PUSH1 0x20 DUP4 ADD PUSH1 0x0 DUP1 DUP5 DUP4 DUP6 GAS STATICCALL POP POP POP POP POP JUMP JUMPDEST PUSH1 0x0 PUSH1 0x20 DUP3 DUP5 SUB SLT ISZERO PUSH2 0x653 JUMPI DUP1 DUP2 REVERT JUMPDEST DUP2 CALLDATALOAD PUSH1 0x1 PUSH1 0x1 PUSH1 0xA0 SHL SUB DUP2 AND DUP2 EQ PUSH2 0x669 JUMPI DUP2 DUP3 REVERT JUMPDEST SWAP4 SWAP3 POP POP POP JUMP JUMPDEST PUSH1 0x0 PUSH1 0x20 DUP3 DUP5 SUB SLT ISZERO PUSH2 0x681 JUMPI DUP1 DUP2 REVERT JUMPDEST POP CALLDATALOAD SWAP2 SWAP1 POP JUMP JUMPDEST PUSH1 0x40 DUP2 MSTORE PUSH1 0x0 DUP4 MLOAD DUP1 PUSH1 0x40 DUP5 ADD MSTORE DUP2 JUMPDEST DUP2 DUP2 LT ISZERO PUSH2 0x6B5 JUMPI PUSH1 0x20 DUP2 DUP8 ADD DUP2 ADD MLOAD PUSH1 0x60 DUP7 DUP5 ADD ADD MSTORE ADD PUSH2 0x698 JUMP JUMPDEST DUP2 DUP2 GT ISZERO PUSH2 0x6C6 JUMPI DUP3 PUSH1 0x60 DUP4 DUP7 ADD ADD MSTORE JUMPDEST POP PUSH1 0x1 PUSH1 0x1 PUSH1 0xA0 SHL SUB SWAP4 SWAP1 SWAP4 AND PUSH1 0x20 DUP4 ADD MSTORE POP PUSH1 0x1F SWAP2 SWAP1 SWAP2 ADD PUSH1 0x1F NOT AND ADD PUSH1 0x60 ADD SWAP2 SWAP1 POP JUMP JUMPDEST PUSH1 0x0 DUP3 NOT DUP3 GT ISZERO PUSH2 0x6FF JUMPI PUSH2 0x6FF PUSH2 0x71F JUMP JUMPDEST POP ADD SWAP1 JUMP JUMPDEST PUSH1 0x0 PUSH1 0x0 NOT DUP3 EQ ISZERO PUSH2 0x718 JUMPI PUSH2 0x718 PUSH2 0x71F JUMP JUMPDEST POP PUSH1 0x1 ADD SWAP1 JUMP JUMPDEST PUSH4 0x4E487B71 PUSH1 0xE0 SHL PUSH1 0x0 MSTORE PUSH1 0x11 PUSH1 0x4 MSTORE PUSH1 0x24 PUSH1 0x0 REVERT INVALID LOG2 PUSH5 0x6970667358 0x22 SLT KECCAK256 0xB5 DUP2 0xDC 0x49 PUSH8 0xBBE45208C9BA19BD 0xC3 DUP8 SWAP3 DUP9 0xE2 0x1E 0xBA SWAP9 KECCAK256 TIMESTAMP 0xCA EXTCODECOPY EQ 0xD2 0xB6 0xD6 0xAC PUSH31 0x8664736F6C63430008040033A264697066735822122060BB1FBEE31794407F 0x48 DIV 0x2D 0xC4 EXTCODESIZE 0xDA DUP8 0xD2 0xBD 0x22 0xEB 0x4D PUSH29 0x7D79E479980A1DCA48D264736F6C634300080400330000000000000000 "},"methodIdentifiers":{"createCampaign(string,uint256,uint256)":"3020580b","getCampaignAddress(uint256)":"e1231ec5","owner()":"8da5cb5b","renounceOwnership()":"715018a6","transferOwnership(address)":"f2fde38b"}}}}}