{
  "_format": "hh-sol-artifact-1",
  "contractName": "Campaign",
  "sourceName": "contracts/Campaign.sol",
  "abi": [
    {
      "inputs": [
        {
          "internalType": "string",
          "name": "_campaignName",
          "type": "string"
        },
        {
          "internalType": "uint256",
          "name": "_goalAmount",
          "type": "uint256"
        },
        {
          "internalType": "uint256",
          "name": "_startDate",
          "type": "uint256"
        },
        {
          "internalType": "uint256",
          "name": "_endDate",
          "type": "uint256"
        }
      ],
      "stateMutability": "nonpayable",
      "type": "constructor"
    },
    {
      "anonymous": false,
      "inputs": [
        {
          "indexed": true,
          "internalType": "address",
          "name": "_from",
          "type": "address"
        },
        {
          "indexed": true,
          "internalType": "uint256",
          "name": "_id",
          "type": "uint256"
        },
        {
          "indexed": false,
          "internalType": "uint256",
          "name": "_value",
          "type": "uint256"
        }
      ],
      "name": "DonationOccurred",
      "type": "event"
    },
    {
      "anonymous": false,
      "inputs": [
        {
          "indexed": true,
          "internalType": "address",
          "name": "_from",
          "type": "address"
        },
        {
          "indexed": false,
          "internalType": "uint256",
          "name": "_value",
          "type": "uint256"
        }
      ],
      "name": "FundsClaimed",
      "type": "event"
    },
    {
      "anonymous": false,
      "inputs": [
        {
          "indexed": true,
          "internalType": "address",
          "name": "previousOwner",
          "type": "address"
        },
        {
          "indexed": true,
          "internalType": "address",
          "name": "newOwner",
          "type": "address"
        }
      ],
      "name": "OwnershipTransferred",
      "type": "event"
    },
    {
      "anonymous": false,
      "inputs": [
        {
          "indexed": false,
          "internalType": "address",
          "name": "",
          "type": "address"
        },
        {
          "indexed": false,
          "internalType": "uint256",
          "name": "",
          "type": "uint256"
        }
      ],
      "name": "Received",
      "type": "event"
    },
    {
      "inputs": [],
      "name": "claimFunds",
      "outputs": [],
      "stateMutability": "nonpayable",
      "type": "function"
    },
    {
      "inputs": [],
      "name": "donate",
      "outputs": [],
      "stateMutability": "payable",
      "type": "function"
    },
    {
      "inputs": [],
      "name": "getAmountCollected",
      "outputs": [
        {
          "internalType": "uint256",
          "name": "",
          "type": "uint256"
        }
      ],
      "stateMutability": "view",
      "type": "function"
    },
    {
      "inputs": [],
      "name": "getDonationsCounter",
      "outputs": [
        {
          "internalType": "uint256",
          "name": "",
          "type": "uint256"
        }
      ],
      "stateMutability": "view",
      "type": "function"
    },
    {
      "inputs": [
        {
          "internalType": "uint256",
          "name": "_id",
          "type": "uint256"
        }
      ],
      "name": "getDonationsDetails",
      "outputs": [
        {
          "components": [
            {
              "internalType": "address",
              "name": "donor",
              "type": "address"
            },
            {
              "internalType": "uint256",
              "name": "timestamp",
              "type": "uint256"
            },
            {
              "internalType": "uint256",
              "name": "amount",
              "type": "uint256"
            }
          ],
          "internalType": "struct Campaign.Donation",
          "name": "",
          "type": "tuple"
        }
      ],
      "stateMutability": "view",
      "type": "function"
    },
    {
      "inputs": [],
      "name": "getGoalAmount",
      "outputs": [
        {
          "internalType": "uint256",
          "name": "",
          "type": "uint256"
        }
      ],
      "stateMutability": "view",
      "type": "function"
    },
    {
      "inputs": [],
      "name": "isGoalReached",
      "outputs": [
        {
          "internalType": "bool",
          "name": "",
          "type": "bool"
        }
      ],
      "stateMutability": "view",
      "type": "function"
    },
    {
      "inputs": [],
      "name": "owner",
      "outputs": [
        {
          "internalType": "address",
          "name": "",
          "type": "address"
        }
      ],
      "stateMutability": "view",
      "type": "function"
    },
    {
      "inputs": [],
      "name": "renounceOwnership",
      "outputs": [],
      "stateMutability": "nonpayable",
      "type": "function"
    },
    {
      "inputs": [
        {
          "internalType": "address",
          "name": "newOwner",
          "type": "address"
        }
      ],
      "name": "transferOwnership",
      "outputs": [],
      "stateMutability": "nonpayable",
      "type": "function"
    },
    {
      "stateMutability": "payable",
      "type": "receive"
    }
  ],
  "bytecode": "0x6080604052600060035560006007553480156200001b57600080fd5b5060405162000ab838038062000ab88339810160408190526200003e9162000168565b620000493362000072565b83516200005e906001906020870190620000c2565b5060029290925560045560055550620002ad565b600080546001600160a01b038381166001600160a01b0319831681178455604051919092169283917f8be0079c531659141344cd1fd0a4f28419497f9722a3daafe3b4186f6b6457e09190a35050565b828054620000d0906200025a565b90600052602060002090601f016020900481019282620000f457600085556200013f565b82601f106200010f57805160ff19168380011785556200013f565b828001600101855582156200013f579182015b828111156200013f57825182559160200191906001019062000122565b506200014d92915062000151565b5090565b5b808211156200014d576000815560010162000152565b600080600080608085870312156200017e578384fd5b84516001600160401b038082111562000195578586fd5b818701915087601f830112620001a9578586fd5b815181811115620001be57620001be62000297565b604051601f8201601f19908116603f01168101908382118183101715620001e957620001e962000297565b81604052828152602093508a8484870101111562000205578889fd5b8891505b8282101562000228578482018401518183018501529083019062000209565b828211156200023957888484830101525b9289015160408a01516060909a0151939b909a509297509195505050505050565b600181811c908216806200026f57607f821691505b602082108114156200029157634e487b7160e01b600052602260045260246000fd5b50919050565b634e487b7160e01b600052604160045260246000fd5b6107fb80620002bd6000396000f3fe6080604052600436106100955760003560e01c80638da5cb5b116100595780638da5cb5b14610189578063ac307773146101b1578063d3eb6f61146101c6578063ed88c68e146101e9578063f2fde38b146101f157600080fd5b80635f410b22146100d9578063715018a6146100fd578063828cfdfd1461011457806383da473e146101295780638d3224061461013e57600080fd5b366100d457604080513381523460208201527f88a5966d370b9919b20f3e2c13ff65706f196a4e32cc2c12bf57088f88525874910160405180910390a1005b600080fd5b3480156100e557600080fd5b506002545b6040519081526020015b60405180910390f35b34801561010957600080fd5b50610112610211565b005b34801561012057600080fd5b506003546100ea565b34801561013557600080fd5b506007546100ea565b34801561014a57600080fd5b5061015e610159366004610700565b610225565b6040805182516001600160a01b031681526020808401519082015291810151908201526060016100f4565b34801561019557600080fd5b506000546040516001600160a01b0390911681526020016100f4565b3480156101bd57600080fd5b50610112610294565b3480156101d257600080fd5b5060025460035460405191111581526020016100f4565b6101126103df565b3480156101fd57600080fd5b5061011261020c3660046106d2565b610545565b6102196105be565b6102236000610618565b565b610252604051806060016040528060006001600160a01b0316815260200160008152602001600081525090565b50600090815260066020908152604091829020825160608101845281546001600160a01b03168152600182015492810192909252600201549181019190915290565b61029c6105be565b60055442106103025760405162461bcd60e51b815260206004820152602760248201527f5468652066756e64696e67207068617365206973207374696c6c20696e20707260448201526637b3b932b9b99760c91b60648201526084015b60405180910390fd5b60025460035410156103645760405162461bcd60e51b815260206004820152602560248201527f54686520676f616c20616d6f756e7420686173206e6f74206265656e2072656160448201526431b432b21760d91b60648201526084016102f9565b600080546003546040516001600160a01b039092169281156108fc029290818181858888f1935050505015801561039f573d6000803e3d6000fd5b5060035460405190815233907fa65a8b4f7f65a1063243d7f7e9e4da00ff767599acf21549ef2548a45d1695ae9060200160405180910390a26000600355565b61041e6040518060400160405280601881526020017f446f6e6174696f6e2072656365697665642066726f6d3a20000000000000000081525033610668565b60055442106104835760405162461bcd60e51b815260206004820152602b60248201527f5468652066756e64696e67207068617365206f6620746869732070726f6a656360448201526a3a1034b99032b73232b21760a91b60648201526084016102f9565b604080516060810182523381524260208083019182523483850181815260075460009081526006909352948220935184546001600160a01b0319166001600160a01b0390911617845591516001840155925160029092019190915560038054919290916104f190849061077c565b909155505060075460405134815233907f71adcff281b29ce9baf84e45b10a812e86c7aa9444c3cf519b37fae0aa7b26d29060200160405180910390a36007805490600061053e83610794565b9190505550565b61054d6105be565b6001600160a01b0381166105b25760405162461bcd60e51b815260206004820152602660248201527f4f776e61626c653a206e6577206f776e657220697320746865207a65726f206160448201526564647265737360d01b60648201526084016102f9565b6105bb81610618565b50565b6000546001600160a01b031633146102235760405162461bcd60e51b815260206004820181905260248201527f4f776e61626c653a2063616c6c6572206973206e6f7420746865206f776e657260448201526064016102f9565b600080546001600160a01b038381166001600160a01b0319831681178455604051919092169283917f8be0079c531659141344cd1fd0a4f28419497f9722a3daafe3b4186f6b6457e09190a35050565b6106ad828260405160240161067e929190610718565b60408051601f198184030181529190526020810180516001600160e01b031663319af33360e01b1790526106b1565b5050565b80516a636f6e736f6c652e6c6f67602083016000808483855afa5050505050565b6000602082840312156106e3578081fd5b81356001600160a01b03811681146106f9578182fd5b9392505050565b600060208284031215610711578081fd5b5035919050565b6040815260008351806040840152815b818110156107455760208187018101516060868401015201610728565b818111156107565782606083860101525b506001600160a01b0393909316602083015250601f91909101601f191601606001919050565b6000821982111561078f5761078f6107af565b500190565b60006000198214156107a8576107a86107af565b5060010190565b634e487b7160e01b600052601160045260246000fdfea2646970667358221220deb4beac88b43a67369e11f841ffaa3425f5903d0738324a11213d8d8a1c23e864736f6c63430008040033",
  "linkReferences": {},
  "deployedLinkReferences": {}
}