{
  "_format": "hh-sol-artifact-1",
  "contractName": "Campaign",
  "sourceName": "contracts/Campaign.sol",
  "abi": [
    {
      "inputs": [
        {
          "internalType": "string",
          "name": "_campaignName",
          "type": "string"
        },
        {
          "internalType": "uint256",
          "name": "_goalAmount",
          "type": "uint256"
        },
        {
          "internalType": "uint256",
          "name": "_startDate",
          "type": "uint256"
        },
        {
          "internalType": "uint256",
          "name": "_endDate",
          "type": "uint256"
        }
      ],
      "stateMutability": "nonpayable",
      "type": "constructor"
    },
    {
      "anonymous": false,
      "inputs": [
        {
          "indexed": true,
          "internalType": "address",
          "name": "_from",
          "type": "address"
        },
        {
          "indexed": false,
          "internalType": "uint256",
          "name": "_value",
          "type": "uint256"
        }
      ],
      "name": "FundsClaimed",
      "type": "event"
    },
    {
      "anonymous": false,
      "inputs": [
        {
          "indexed": true,
          "internalType": "address",
          "name": "previousOwner",
          "type": "address"
        },
        {
          "indexed": true,
          "internalType": "address",
          "name": "newOwner",
          "type": "address"
        }
      ],
      "name": "OwnershipTransferred",
      "type": "event"
    },
    {
      "anonymous": false,
      "inputs": [
        {
          "indexed": false,
          "internalType": "address",
          "name": "",
          "type": "address"
        },
        {
          "indexed": false,
          "internalType": "uint256",
          "name": "",
          "type": "uint256"
        }
      ],
      "name": "Received",
      "type": "event"
    },
    {
      "inputs": [],
      "name": "claimFunds",
      "outputs": [],
      "stateMutability": "nonpayable",
      "type": "function"
    },
    {
      "inputs": [],
      "name": "donate",
      "outputs": [],
      "stateMutability": "payable",
      "type": "function"
    },
    {
      "inputs": [],
      "name": "getAmountCollected",
      "outputs": [
        {
          "internalType": "uint256",
          "name": "",
          "type": "uint256"
        }
      ],
      "stateMutability": "view",
      "type": "function"
    },
    {
      "inputs": [
        {
          "internalType": "address",
          "name": "_address",
          "type": "address"
        }
      ],
      "name": "getDonationBalance",
      "outputs": [
        {
          "internalType": "uint256",
          "name": "",
          "type": "uint256"
        }
      ],
      "stateMutability": "view",
      "type": "function"
    },
    {
      "inputs": [],
      "name": "getDonationsCounter",
      "outputs": [
        {
          "internalType": "uint256",
          "name": "",
          "type": "uint256"
        }
      ],
      "stateMutability": "view",
      "type": "function"
    },
    {
      "inputs": [],
      "name": "getEndDate",
      "outputs": [
        {
          "internalType": "uint256",
          "name": "",
          "type": "uint256"
        }
      ],
      "stateMutability": "view",
      "type": "function"
    },
    {
      "inputs": [],
      "name": "getGoalAmount",
      "outputs": [
        {
          "internalType": "uint256",
          "name": "",
          "type": "uint256"
        }
      ],
      "stateMutability": "view",
      "type": "function"
    },
    {
      "inputs": [],
      "name": "getRefund",
      "outputs": [],
      "stateMutability": "nonpayable",
      "type": "function"
    },
    {
      "inputs": [],
      "name": "getStartDate",
      "outputs": [
        {
          "internalType": "uint256",
          "name": "",
          "type": "uint256"
        }
      ],
      "stateMutability": "view",
      "type": "function"
    },
    {
      "inputs": [],
      "name": "isGoalReached",
      "outputs": [
        {
          "internalType": "bool",
          "name": "",
          "type": "bool"
        }
      ],
      "stateMutability": "view",
      "type": "function"
    },
    {
      "inputs": [],
      "name": "owner",
      "outputs": [
        {
          "internalType": "address",
          "name": "",
          "type": "address"
        }
      ],
      "stateMutability": "view",
      "type": "function"
    },
    {
      "inputs": [],
      "name": "renounceOwnership",
      "outputs": [],
      "stateMutability": "nonpayable",
      "type": "function"
    },
    {
      "inputs": [
        {
          "internalType": "address",
          "name": "newOwner",
          "type": "address"
        }
      ],
      "name": "transferOwnership",
      "outputs": [],
      "stateMutability": "nonpayable",
      "type": "function"
    },
    {
      "stateMutability": "payable",
      "type": "receive"
    }
  ],
  "bytecode": "0x6080604052600060035560006007553480156200001b57600080fd5b5060405162000a9438038062000a948339810160408190526200003e9162000168565b620000493362000072565b83516200005e906001906020870190620000c2565b5060029290925560045560055550620002ad565b600080546001600160a01b038381166001600160a01b0319831681178455604051919092169283917f8be0079c531659141344cd1fd0a4f28419497f9722a3daafe3b4186f6b6457e09190a35050565b828054620000d0906200025a565b90600052602060002090601f016020900481019282620000f457600085556200013f565b82601f106200010f57805160ff19168380011785556200013f565b828001600101855582156200013f579182015b828111156200013f57825182559160200191906001019062000122565b506200014d92915062000151565b5090565b5b808211156200014d576000815560010162000152565b600080600080608085870312156200017e578384fd5b84516001600160401b038082111562000195578586fd5b818701915087601f830112620001a9578586fd5b815181811115620001be57620001be62000297565b604051601f8201601f19908116603f01168101908382118183101715620001e957620001e962000297565b81604052828152602093508a8484870101111562000205578889fd5b8891505b8282101562000228578482018401518183018501529083019062000209565b828211156200023957888484830101525b9289015160408a01516060909a0151939b909a509297509195505050505050565b600181811c908216806200026f57607f821691505b602082108114156200029157634e487b7160e01b600052602260045260246000fd5b50919050565b634e487b7160e01b600052604160045260246000fd5b6107d780620002bd6000396000f3fe6080604052600436106100c65760003560e01c8063ac3077731161007f578063d3eb6f6111610059578063d3eb6f61146101eb578063ed88c68e1461020e578063f2fde38b14610216578063fdb729d81461023657600080fd5b8063ac307773146101ac578063b1356488146101c1578063b2d5ae44146101d657600080fd5b80635f410b221461010a578063715018a61461012e57806378f305c614610145578063828cfdfd1461015a57806383da473e1461016f5780638da5cb5b1461018457600080fd5b3661010557604080513381523460208201527f88a5966d370b9919b20f3e2c13ff65706f196a4e32cc2c12bf57088f88525874910160405180910390a1005b600080fd5b34801561011657600080fd5b506002545b6040519081526020015b60405180910390f35b34801561013a57600080fd5b5061014361026c565b005b34801561015157600080fd5b5060045461011b565b34801561016657600080fd5b5060035461011b565b34801561017b57600080fd5b5060075461011b565b34801561019057600080fd5b506000546040516001600160a01b039091168152602001610125565b3480156101b857600080fd5b50610143610280565b3480156101cd57600080fd5b5060055461011b565b3480156101e257600080fd5b5061014361038f565b3480156101f757600080fd5b506002546003546040519111158152602001610125565b6101436104a6565b34801561022257600080fd5b506101436102313660046106e3565b6105c0565b34801561024257600080fd5b5061011b6102513660046106e3565b6001600160a01b031660009081526006602052604090205490565b610274610639565b61027e6000610693565b565b610288610639565b60055442116102b25760405162461bcd60e51b81526004016102a990610711565b60405180910390fd5b60025460035410156103145760405162461bcd60e51b815260206004820152602560248201527f54686520676f616c20616d6f756e7420686173206e6f74206265656e2072656160448201526431b432b21760d91b60648201526084016102a9565b600080546003546040516001600160a01b039092169281156108fc029290818181858888f1935050505015801561034f573d6000803e3d6000fd5b5060035460405190815233907fa65a8b4f7f65a1063243d7f7e9e4da00ff767599acf21549ef2548a45d1695ae9060200160405180910390a26000600355565b60055442116103b05760405162461bcd60e51b81526004016102a990610711565b6002546003541061040d5760405162461bcd60e51b815260206004820152602160248201527f54686520676f616c20616d6f756e7420686173206265656e20726561636865646044820152601760f91b60648201526084016102a9565b336000908152600660205260409020546104615760405162461bcd60e51b81526020600482015260156024820152742cb7ba903430bb32903737ba103237b730ba32b21760591b60448201526064016102a9565b33600081815260066020526040808220805490839055905190929183156108fc02918491818181858888f193505050501580156104a2573d6000803e3d6000fd5b5050565b6004544210156105075760405162461bcd60e51b815260206004820152602660248201527f5468652066756e64696e6720706861736520686173206e6f742073746172746560448201526532103cb2ba1760d11b60648201526084016102a9565b600554421061056c5760405162461bcd60e51b815260206004820152602b60248201527f5468652066756e64696e67207068617365206f6620746869732070726f6a656360448201526a3a1034b99032b73232b21760a91b60648201526084016102a9565b336000908152600660205260408120805434929061058b908490610758565b9250508190555034600360008282546105a49190610758565b9091555050600780549060006105b983610770565b9190505550565b6105c8610639565b6001600160a01b03811661062d5760405162461bcd60e51b815260206004820152602660248201527f4f776e61626c653a206e6577206f776e657220697320746865207a65726f206160448201526564647265737360d01b60648201526084016102a9565b61063681610693565b50565b6000546001600160a01b0316331461027e5760405162461bcd60e51b815260206004820181905260248201527f4f776e61626c653a2063616c6c6572206973206e6f7420746865206f776e657260448201526064016102a9565b600080546001600160a01b038381166001600160a01b0319831681178455604051919092169283917f8be0079c531659141344cd1fd0a4f28419497f9722a3daafe3b4186f6b6457e09190a35050565b6000602082840312156106f4578081fd5b81356001600160a01b038116811461070a578182fd5b9392505050565b60208082526027908201527f5468652066756e64696e67207068617365206973207374696c6c20696e20707260408201526637b3b932b9b99760c91b606082015260800190565b6000821982111561076b5761076b61078b565b500190565b60006000198214156107845761078461078b565b5060010190565b634e487b7160e01b600052601160045260246000fdfea2646970667358221220e39c7adf550f08253f2a20571f47c9b24895d5e7aed2499b944abaa73824d18964736f6c63430008040033",
  "linkReferences": {},
  "deployedLinkReferences": {}
}